{
  "_format": "hh-sol-artifact-1",
  "contractName": "HelloPYUSD",
  "sourceName": "contracts/HelloPYUSD.sol",
  "abi": [
    {
      "inputs": [
        {
          "internalType": "address",
          "name": "_mintToken",
          "type": "address"
        },
        {
          "internalType": "uint256",
          "name": "_mintPrice",
          "type": "uint256"
        }
      ],
      "stateMutability": "nonpayable",
      "type": "constructor"
    },
    {
      "inputs": [
        {
          "internalType": "address",
          "name": "sender",
          "type": "address"
        },
        {
          "internalType": "uint256",
          "name": "tokenId",
          "type": "uint256"
        },
        {
          "internalType": "address",
          "name": "owner",
          "type": "address"
        }
      ],
      "name": "ERC721IncorrectOwner",
      "type": "error"
    },
    {
      "inputs": [
        {
          "internalType": "address",
          "name": "operator",
          "type": "address"
        },
        {
          "internalType": "uint256",
          "name": "tokenId",
          "type": "uint256"
        }
      ],
      "name": "ERC721InsufficientApproval",
      "type": "error"
    },
    {
      "inputs": [
        {
          "internalType": "address",
          "name": "approver",
          "type": "address"
        }
      ],
      "name": "ERC721InvalidApprover",
      "type": "error"
    },
    {
      "inputs": [
        {
          "internalType": "address",
          "name": "operator",
          "type": "address"
        }
      ],
      "name": "ERC721InvalidOperator",
      "type": "error"
    },
    {
      "inputs": [
        {
          "internalType": "address",
          "name": "owner",
          "type": "address"
        }
      ],
      "name": "ERC721InvalidOwner",
      "type": "error"
    },
    {
      "inputs": [
        {
          "internalType": "address",
          "name": "receiver",
          "type": "address"
        }
      ],
      "name": "ERC721InvalidReceiver",
      "type": "error"
    },
    {
      "inputs": [
        {
          "internalType": "address",
          "name": "sender",
          "type": "address"
        }
      ],
      "name": "ERC721InvalidSender",
      "type": "error"
    },
    {
      "inputs": [
        {
          "internalType": "uint256",
          "name": "tokenId",
          "type": "uint256"
        }
      ],
      "name": "ERC721NonexistentToken",
      "type": "error"
    },
    {
      "inputs": [
        {
          "internalType": "address",
          "name": "owner",
          "type": "address"
        }
      ],
      "name": "OwnableInvalidOwner",
      "type": "error"
    },
    {
      "inputs": [
        {
          "internalType": "address",
          "name": "account",
          "type": "address"
        }
      ],
      "name": "OwnableUnauthorizedAccount",
      "type": "error"
    },
    {
      "anonymous": false,
      "inputs": [
        {
          "indexed": true,
          "internalType": "address",
          "name": "owner",
          "type": "address"
        },
        {
          "indexed": true,
          "internalType": "address",
          "name": "approved",
          "type": "address"
        },
        {
          "indexed": true,
          "internalType": "uint256",
          "name": "tokenId",
          "type": "uint256"
        }
      ],
      "name": "Approval",
      "type": "event"
    },
    {
      "anonymous": false,
      "inputs": [
        {
          "indexed": true,
          "internalType": "address",
          "name": "owner",
          "type": "address"
        },
        {
          "indexed": true,
          "internalType": "address",
          "name": "operator",
          "type": "address"
        },
        {
          "indexed": false,
          "internalType": "bool",
          "name": "approved",
          "type": "bool"
        }
      ],
      "name": "ApprovalForAll",
      "type": "event"
    },
    {
      "anonymous": false,
      "inputs": [
        {
          "indexed": false,
          "internalType": "uint256",
          "name": "_fromTokenId",
          "type": "uint256"
        },
        {
          "indexed": false,
          "internalType": "uint256",
          "name": "_toTokenId",
          "type": "uint256"
        }
      ],
      "name": "BatchMetadataUpdate",
      "type": "event"
    },
    {
      "anonymous": false,
      "inputs": [
        {
          "indexed": false,
          "internalType": "uint256",
          "name": "_tokenId",
          "type": "uint256"
        }
      ],
      "name": "MetadataUpdate",
      "type": "event"
    },
    {
      "anonymous": false,
      "inputs": [
        {
          "indexed": true,
          "internalType": "address",
          "name": "previousOwner",
          "type": "address"
        },
        {
          "indexed": true,
          "internalType": "address",
          "name": "newOwner",
          "type": "address"
        }
      ],
      "name": "OwnershipTransferred",
      "type": "event"
    },
    {
      "anonymous": false,
      "inputs": [
        {
          "indexed": true,
          "internalType": "address",
          "name": "from",
          "type": "address"
        },
        {
          "indexed": true,
          "internalType": "address",
          "name": "to",
          "type": "address"
        },
        {
          "indexed": true,
          "internalType": "uint256",
          "name": "tokenId",
          "type": "uint256"
        }
      ],
      "name": "Transfer",
      "type": "event"
    },
    {
      "inputs": [
        {
          "internalType": "address",
          "name": "to",
          "type": "address"
        },
        {
          "internalType": "uint256",
          "name": "tokenId",
          "type": "uint256"
        }
      ],
      "name": "approve",
      "outputs": [],
      "stateMutability": "nonpayable",
      "type": "function"
    },
    {
      "inputs": [
        {
          "internalType": "address",
          "name": "owner",
          "type": "address"
        }
      ],
      "name": "balanceOf",
      "outputs": [
        {
          "internalType": "uint256",
          "name": "",
          "type": "uint256"
        }
      ],
      "stateMutability": "view",
      "type": "function"
    },
    {
      "inputs": [
        {
          "internalType": "uint256",
          "name": "tokenId",
          "type": "uint256"
        }
      ],
      "name": "getApproved",
      "outputs": [
        {
          "internalType": "address",
          "name": "",
          "type": "address"
        }
      ],
      "stateMutability": "view",
      "type": "function"
    },
    {
      "inputs": [
        {
          "internalType": "address",
          "name": "owner",
          "type": "address"
        },
        {
          "internalType": "address",
          "name": "operator",
          "type": "address"
        }
      ],
      "name": "isApprovedForAll",
      "outputs": [
        {
          "internalType": "bool",
          "name": "",
          "type": "bool"
        }
      ],
      "stateMutability": "view",
      "type": "function"
    },
    {
      "inputs": [
        {
          "internalType": "string",
          "name": "newTokenURI",
          "type": "string"
        }
      ],
      "name": "mint",
      "outputs": [],
      "stateMutability": "nonpayable",
      "type": "function"
    },
    {
      "inputs": [],
      "name": "mintPrice",
      "outputs": [
        {
          "internalType": "uint256",
          "name": "",
          "type": "uint256"
        }
      ],
      "stateMutability": "view",
      "type": "function"
    },
    {
      "inputs": [],
      "name": "mintToken",
      "outputs": [
        {
          "internalType": "contract IERC20",
          "name": "",
          "type": "address"
        }
      ],
      "stateMutability": "view",
      "type": "function"
    },
    {
      "inputs": [],
      "name": "name",
      "outputs": [
        {
          "internalType": "string",
          "name": "",
          "type": "string"
        }
      ],
      "stateMutability": "view",
      "type": "function"
    },
    {
      "inputs": [],
      "name": "owner",
      "outputs": [
        {
          "internalType": "address",
          "name": "",
          "type": "address"
        }
      ],
      "stateMutability": "view",
      "type": "function"
    },
    {
      "inputs": [
        {
          "internalType": "uint256",
          "name": "tokenId",
          "type": "uint256"
        }
      ],
      "name": "ownerOf",
      "outputs": [
        {
          "internalType": "address",
          "name": "",
          "type": "address"
        }
      ],
      "stateMutability": "view",
      "type": "function"
    },
    {
      "inputs": [],
      "name": "renounceOwnership",
      "outputs": [],
      "stateMutability": "nonpayable",
      "type": "function"
    },
    {
      "inputs": [
        {
          "internalType": "address",
          "name": "from",
          "type": "address"
        },
        {
          "internalType": "address",
          "name": "to",
          "type": "address"
        },
        {
          "internalType": "uint256",
          "name": "tokenId",
          "type": "uint256"
        }
      ],
      "name": "safeTransferFrom",
      "outputs": [],
      "stateMutability": "nonpayable",
      "type": "function"
    },
    {
      "inputs": [
        {
          "internalType": "address",
          "name": "from",
          "type": "address"
        },
        {
          "internalType": "address",
          "name": "to",
          "type": "address"
        },
        {
          "internalType": "uint256",
          "name": "tokenId",
          "type": "uint256"
        },
        {
          "internalType": "bytes",
          "name": "data",
          "type": "bytes"
        }
      ],
      "name": "safeTransferFrom",
      "outputs": [],
      "stateMutability": "nonpayable",
      "type": "function"
    },
    {
      "inputs": [
        {
          "internalType": "address",
          "name": "operator",
          "type": "address"
        },
        {
          "internalType": "bool",
          "name": "approved",
          "type": "bool"
        }
      ],
      "name": "setApprovalForAll",
      "outputs": [],
      "stateMutability": "nonpayable",
      "type": "function"
    },
    {
      "inputs": [
        {
          "internalType": "bytes4",
          "name": "interfaceId",
          "type": "bytes4"
        }
      ],
      "name": "supportsInterface",
      "outputs": [
        {
          "internalType": "bool",
          "name": "",
          "type": "bool"
        }
      ],
      "stateMutability": "view",
      "type": "function"
    },
    {
      "inputs": [],
      "name": "symbol",
      "outputs": [
        {
          "internalType": "string",
          "name": "",
          "type": "string"
        }
      ],
      "stateMutability": "view",
      "type": "function"
    },
    {
      "inputs": [
        {
          "internalType": "uint256",
          "name": "tokenId",
          "type": "uint256"
        }
      ],
      "name": "tokenURI",
      "outputs": [
        {
          "internalType": "string",
          "name": "",
          "type": "string"
        }
      ],
      "stateMutability": "view",
      "type": "function"
    },
    {
      "inputs": [],
      "name": "totalIssued",
      "outputs": [
        {
          "internalType": "uint256",
          "name": "",
          "type": "uint256"
        }
      ],
      "stateMutability": "view",
      "type": "function"
    },
    {
      "inputs": [
        {
          "internalType": "address",
          "name": "from",
          "type": "address"
        },
        {
          "internalType": "address",
          "name": "to",
          "type": "address"
        },
        {
          "internalType": "uint256",
          "name": "tokenId",
          "type": "uint256"
        }
      ],
      "name": "transferFrom",
      "outputs": [],
      "stateMutability": "nonpayable",
      "type": "function"
    },
    {
      "inputs": [
        {
          "internalType": "address",
          "name": "newOwner",
          "type": "address"
        }
      ],
      "name": "transferOwnership",
      "outputs": [],
      "stateMutability": "nonpayable",
      "type": "function"
    },
    {
      "inputs": [
        {
          "internalType": "address",
          "name": "token",
          "type": "address"
        },
        {
          "internalType": "address",
          "name": "to",
          "type": "address"
        }
      ],
      "name": "withdrawToken",
      "outputs": [],
      "stateMutability": "nonpayable",
      "type": "function"
    }
  ],
  "bytecode": "0x60c06040523480156200001157600080fd5b50604051620031d0380380620031d0833981810160405281019062000037919062000300565b336040518060400160405280600a81526020017f48656c6c6f5059555344000000000000000000000000000000000000000000008152506040518060400160405280600681526020017f48495059504c00000000000000000000000000000000000000000000000000008152508160009081620000b59190620005b7565b508060019081620000c79190620005b7565b505050600073ffffffffffffffffffffffffffffffffffffffff168173ffffffffffffffffffffffffffffffffffffffff16036200013f5760006040517f1e4fbdf7000000000000000000000000000000000000000000000000000000008152600401620001369190620006af565b60405180910390fd5b62000150816200019560201b60201c565b508173ffffffffffffffffffffffffffffffffffffffff1660808173ffffffffffffffffffffffffffffffffffffffff16815250508060a081815250505050620006cc565b6000600760009054906101000a900473ffffffffffffffffffffffffffffffffffffffff16905081600760006101000a81548173ffffffffffffffffffffffffffffffffffffffff021916908373ffffffffffffffffffffffffffffffffffffffff1602179055508173ffffffffffffffffffffffffffffffffffffffff168173ffffffffffffffffffffffffffffffffffffffff167f8be0079c531659141344cd1fd0a4f28419497f9722a3daafe3b4186f6b6457e060405160405180910390a35050565b600080fd5b600073ffffffffffffffffffffffffffffffffffffffff82169050919050565b60006200028d8262000260565b9050919050565b6200029f8162000280565b8114620002ab57600080fd5b50565b600081519050620002bf8162000294565b92915050565b6000819050919050565b620002da81620002c5565b8114620002e657600080fd5b50565b600081519050620002fa81620002cf565b92915050565b600080604083850312156200031a57620003196200025b565b5b60006200032a85828601620002ae565b92505060206200033d85828601620002e9565b9150509250929050565b600081519050919050565b7f4e487b7100000000000000000000000000000000000000000000000000000000600052604160045260246000fd5b7f4e487b7100000000000000000000000000000000000000000000000000000000600052602260045260246000fd5b60006002820490506001821680620003c957607f821691505b602082108103620003df57620003de62000381565b5b50919050565b60008190508160005260206000209050919050565b60006020601f8301049050919050565b600082821b905092915050565b600060088302620004497fffffffffffffffffffffffffffffffffffffffffffffffffffffffffffffffff826200040a565b6200045586836200040a565b95508019841693508086168417925050509392505050565b6000819050919050565b600062000498620004926200048c84620002c5565b6200046d565b620002c5565b9050919050565b6000819050919050565b620004b48362000477565b620004cc620004c3826200049f565b84845462000417565b825550505050565b600090565b620004e3620004d4565b620004f0818484620004a9565b505050565b5b8181101562000518576200050c600082620004d9565b600181019050620004f6565b5050565b601f82111562000567576200053181620003e5565b6200053c84620003fa565b810160208510156200054c578190505b620005646200055b85620003fa565b830182620004f5565b50505b505050565b600082821c905092915050565b60006200058c600019846008026200056c565b1980831691505092915050565b6000620005a7838362000579565b9150826002028217905092915050565b620005c28262000347565b67ffffffffffffffff811115620005de57620005dd62000352565b5b620005ea8254620003b0565b620005f78282856200051c565b600060209050601f8311600181146200062f57600084156200061a578287015190505b62000626858262000599565b86555062000696565b601f1984166200063f86620003e5565b60005b82811015620006695784890151825560018201915060208501945060208101905062000642565b8683101562000689578489015162000685601f89168262000579565b8355505b6001600288020188555050505b505050505050565b620006a98162000280565b82525050565b6000602082019050620006c660008301846200069e565b92915050565b60805160a051612ad0620007006000396000818161077d0152610ab70152600081816105210152610a790152612ad06000f3fe608060405234801561001057600080fd5b50600436106101375760003560e01c806370a08231116100b8578063b88d4fde1161007c578063b88d4fde14610328578063c87b56dd14610344578063d85d3d2714610374578063e985e9c514610390578063f2fde38b146103c0578063f5be3193146103dc57610137565b806370a0823114610296578063715018a6146102c65780638da5cb5b146102d057806395d89b41146102ee578063a22cb4651461030c57610137565b806323b872dd116100ff57806323b872dd146101f45780633aeac4e11461021057806342842e0e1461022c5780636352211e146102485780636817c76c1461027857610137565b806301ffc9a71461013c57806306fdde031461016c578063081812fc1461018a578063095ea7b3146101ba5780632004ffd9146101d6575b600080fd5b61015660048036038101906101519190611da4565b6103fa565b6040516101639190611dec565b60405180910390f35b61017461045b565b6040516101819190611e97565b60405180910390f35b6101a4600480360381019061019f9190611eef565b6104ed565b6040516101b19190611f5d565b60405180910390f35b6101d460048036038101906101cf9190611fa4565b610509565b005b6101de61051f565b6040516101eb9190612043565b60405180910390f35b61020e6004803603810190610209919061205e565b610543565b005b61022a600480360381019061022591906120b1565b610645565b005b6102466004803603810190610241919061205e565b610749565b005b610262600480360381019061025d9190611eef565b610769565b60405161026f9190611f5d565b60405180910390f35b61028061077b565b60405161028d9190612100565b60405180910390f35b6102b060048036038101906102ab919061211b565b61079f565b6040516102bd9190612100565b60405180910390f35b6102ce610859565b005b6102d861086d565b6040516102e59190611f5d565b60405180910390f35b6102f6610897565b6040516103039190611e97565b60405180910390f35b61032660048036038101906103219190612174565b610929565b005b610342600480360381019061033d91906122e9565b61093f565b005b61035e60048036038101906103599190611eef565b610964565b60405161036b9190611e97565b60405180910390f35b61038e6004803603810190610389919061240d565b610a77565b005b6103aa60048036038101906103a591906120b1565b610ba7565b6040516103b79190611dec565b60405180910390f35b6103da60048036038101906103d5919061211b565b610c3b565b005b6103e4610cc1565b6040516103f19190612100565b60405180910390f35b6000634906490660e01b7bffffffffffffffffffffffffffffffffffffffffffffffffffffffff1916827bffffffffffffffffffffffffffffffffffffffffffffffffffffffff19161480610454575061045382610cc7565b5b9050919050565b60606000805461046a90612485565b80601f016020809104026020016040519081016040528092919081815260200182805461049690612485565b80156104e35780601f106104b8576101008083540402835291602001916104e3565b820191906000526020600020905b8154815290600101906020018083116104c657829003601f168201915b5050505050905090565b60006104f882610da9565b5061050282610e31565b9050919050565b61051b8282610516610e6e565b610e76565b5050565b7f000000000000000000000000000000000000000000000000000000000000000081565b600073ffffffffffffffffffffffffffffffffffffffff168273ffffffffffffffffffffffffffffffffffffffff16036105b55760006040517f64a0ae920000000000000000000000000000000000000000000000000000000081526004016105ac9190611f5d565b60405180910390fd5b60006105c983836105c4610e6e565b610e88565b90508373ffffffffffffffffffffffffffffffffffffffff168173ffffffffffffffffffffffffffffffffffffffff161461063f578382826040517f64283d7b000000000000000000000000000000000000000000000000000000008152600401610636939291906124b6565b60405180910390fd5b50505050565b61064d6110a2565b8173ffffffffffffffffffffffffffffffffffffffff1663a9059cbb828473ffffffffffffffffffffffffffffffffffffffff166370a08231306040518263ffffffff1660e01b81526004016106a39190611f5d565b602060405180830381865afa1580156106c0573d6000803e3d6000fd5b505050506040513d601f19601f820116820180604052508101906106e49190612502565b6040518363ffffffff1660e01b815260040161070192919061252f565b6020604051808303816000875af1158015610720573d6000803e3d6000fd5b505050506040513d601f19601f82011682018060405250810190610744919061256d565b505050565b6107648383836040518060200160405280600081525061093f565b505050565b600061077482610da9565b9050919050565b7f000000000000000000000000000000000000000000000000000000000000000081565b60008073ffffffffffffffffffffffffffffffffffffffff168273ffffffffffffffffffffffffffffffffffffffff16036108125760006040517f89c62b640000000000000000000000000000000000000000000000000000000081526004016108099190611f5d565b60405180910390fd5b600360008373ffffffffffffffffffffffffffffffffffffffff1673ffffffffffffffffffffffffffffffffffffffff168152602001908152602001600020549050919050565b6108616110a2565b61086b6000611129565b565b6000600760009054906101000a900473ffffffffffffffffffffffffffffffffffffffff16905090565b6060600180546108a690612485565b80601f01602080910402602001604051908101604052809291908181526020018280546108d290612485565b801561091f5780601f106108f45761010080835404028352916020019161091f565b820191906000526020600020905b81548152906001019060200180831161090257829003601f168201915b5050505050905090565b61093b610934610e6e565b83836111ef565b5050565b61094a848484610543565b61095e610955610e6e565b8585858561135e565b50505050565b606061096f82610da9565b50600060066000848152602001908152602001600020805461099090612485565b80601f01602080910402602001604051908101604052809291908181526020018280546109bc90612485565b8015610a095780601f106109de57610100808354040283529160200191610a09565b820191906000526020600020905b8154815290600101906020018083116109ec57829003601f168201915b505050505090506000610a1a61150f565b90506000815103610a2f578192505050610a72565b600082511115610a64578082604051602001610a4c9291906125d6565b60405160208183030381529060405292505050610a72565b610a6d84611526565b925050505b919050565b7f000000000000000000000000000000000000000000000000000000000000000073ffffffffffffffffffffffffffffffffffffffff166323b872dd33307f00000000000000000000000000000000000000000000000000000000000000006040518463ffffffff1660e01b8152600401610af4939291906125fa565b6020604051808303816000875af1158015610b13573d6000803e3d6000fd5b505050506040513d601f19601f82011682018060405250810190610b37919061256d565b610b76576040517f08c379a0000000000000000000000000000000000000000000000000000000008152600401610b6d9061267d565b60405180910390fd5b6000600860008154610b87906126cc565b9190508190559050610b99338261158f565b610ba381836115ad565b5050565b6000600560008473ffffffffffffffffffffffffffffffffffffffff1673ffffffffffffffffffffffffffffffffffffffff16815260200190815260200160002060008373ffffffffffffffffffffffffffffffffffffffff1673ffffffffffffffffffffffffffffffffffffffff16815260200190815260200160002060009054906101000a900460ff16905092915050565b610c436110a2565b600073ffffffffffffffffffffffffffffffffffffffff168173ffffffffffffffffffffffffffffffffffffffff1603610cb55760006040517f1e4fbdf7000000000000000000000000000000000000000000000000000000008152600401610cac9190611f5d565b60405180910390fd5b610cbe81611129565b50565b60085481565b60007f80ac58cd000000000000000000000000000000000000000000000000000000007bffffffffffffffffffffffffffffffffffffffffffffffffffffffff1916827bffffffffffffffffffffffffffffffffffffffffffffffffffffffff19161480610d9257507f5b5e139f000000000000000000000000000000000000000000000000000000007bffffffffffffffffffffffffffffffffffffffffffffffffffffffff1916827bffffffffffffffffffffffffffffffffffffffffffffffffffffffff1916145b80610da25750610da182611609565b5b9050919050565b600080610db583611673565b9050600073ffffffffffffffffffffffffffffffffffffffff168173ffffffffffffffffffffffffffffffffffffffff1603610e2857826040517f7e273289000000000000000000000000000000000000000000000000000000008152600401610e1f9190612100565b60405180910390fd5b80915050919050565b60006004600083815260200190815260200160002060009054906101000a900473ffffffffffffffffffffffffffffffffffffffff169050919050565b600033905090565b610e8383838360016116b0565b505050565b600080610e9484611673565b9050600073ffffffffffffffffffffffffffffffffffffffff168373ffffffffffffffffffffffffffffffffffffffff1614610ed657610ed5818486611875565b5b600073ffffffffffffffffffffffffffffffffffffffff168173ffffffffffffffffffffffffffffffffffffffff1614610f6757610f186000856000806116b0565b6001600360008373ffffffffffffffffffffffffffffffffffffffff1673ffffffffffffffffffffffffffffffffffffffff168152602001908152602001600020600082825403925050819055505b600073ffffffffffffffffffffffffffffffffffffffff168573ffffffffffffffffffffffffffffffffffffffff1614610fea576001600360008773ffffffffffffffffffffffffffffffffffffffff1673ffffffffffffffffffffffffffffffffffffffff168152602001908152602001600020600082825401925050819055505b846002600086815260200190815260200160002060006101000a81548173ffffffffffffffffffffffffffffffffffffffff021916908373ffffffffffffffffffffffffffffffffffffffff160217905550838573ffffffffffffffffffffffffffffffffffffffff168273ffffffffffffffffffffffffffffffffffffffff167fddf252ad1be2c89b69c2b068fc378daa952ba7f163c4a11628f55a4df523b3ef60405160405180910390a4809150509392505050565b6110aa610e6e565b73ffffffffffffffffffffffffffffffffffffffff166110c861086d565b73ffffffffffffffffffffffffffffffffffffffff1614611127576110eb610e6e565b6040517f118cdaa700000000000000000000000000000000000000000000000000000000815260040161111e9190611f5d565b60405180910390fd5b565b6000600760009054906101000a900473ffffffffffffffffffffffffffffffffffffffff16905081600760006101000a81548173ffffffffffffffffffffffffffffffffffffffff021916908373ffffffffffffffffffffffffffffffffffffffff1602179055508173ffffffffffffffffffffffffffffffffffffffff168173ffffffffffffffffffffffffffffffffffffffff167f8be0079c531659141344cd1fd0a4f28419497f9722a3daafe3b4186f6b6457e060405160405180910390a35050565b600073ffffffffffffffffffffffffffffffffffffffff168273ffffffffffffffffffffffffffffffffffffffff160361126057816040517f5b08ba180000000000000000000000000000000000000000000000000000000081526004016112579190611f5d565b60405180910390fd5b80600560008573ffffffffffffffffffffffffffffffffffffffff1673ffffffffffffffffffffffffffffffffffffffff16815260200190815260200160002060008473ffffffffffffffffffffffffffffffffffffffff1673ffffffffffffffffffffffffffffffffffffffff16815260200190815260200160002060006101000a81548160ff0219169083151502179055508173ffffffffffffffffffffffffffffffffffffffff168373ffffffffffffffffffffffffffffffffffffffff167f17307eab39ab6107e8899845ad3d59bd9653f200f220920489ca2b5937696c31836040516113519190611dec565b60405180910390a3505050565b60008373ffffffffffffffffffffffffffffffffffffffff163b1115611508578273ffffffffffffffffffffffffffffffffffffffff1663150b7a02868685856040518563ffffffff1660e01b81526004016113bd9493929190612769565b6020604051808303816000875af19250505080156113f957506040513d601f19601f820116820180604052508101906113f691906127ca565b60015b61147d573d8060008114611429576040519150601f19603f3d011682016040523d82523d6000602084013e61142e565b606091505b50600081510361147557836040517f64a0ae9200000000000000000000000000000000000000000000000000000000815260040161146c9190611f5d565b60405180910390fd5b805181602001fd5b63150b7a0260e01b7bffffffffffffffffffffffffffffffffffffffffffffffffffffffff1916817bffffffffffffffffffffffffffffffffffffffffffffffffffffffff19161461150657836040517f64a0ae920000000000000000000000000000000000000000000000000000000081526004016114fd9190611f5d565b60405180910390fd5b505b5050505050565b606060405180602001604052806000815250905090565b606061153182610da9565b50600061153c61150f565b9050600081511161155c5760405180602001604052806000815250611587565b8061156684611939565b6040516020016115779291906125d6565b6040516020818303038152906040525b915050919050565b6115a9828260405180602001604052806000815250611a07565b5050565b806006600084815260200190815260200160002090816115cd9190612999565b507ff8e1a15aba9398e019f0b49df1a4fde98ee17ae345cb5f6b5e2c27f5033e8ce7826040516115fd9190612100565b60405180910390a15050565b60007f01ffc9a7000000000000000000000000000000000000000000000000000000007bffffffffffffffffffffffffffffffffffffffffffffffffffffffff1916827bffffffffffffffffffffffffffffffffffffffffffffffffffffffff1916149050919050565b60006002600083815260200190815260200160002060009054906101000a900473ffffffffffffffffffffffffffffffffffffffff169050919050565b80806116e95750600073ffffffffffffffffffffffffffffffffffffffff168273ffffffffffffffffffffffffffffffffffffffff1614155b1561181d5760006116f984610da9565b9050600073ffffffffffffffffffffffffffffffffffffffff168373ffffffffffffffffffffffffffffffffffffffff161415801561176457508273ffffffffffffffffffffffffffffffffffffffff168173ffffffffffffffffffffffffffffffffffffffff1614155b801561177757506117758184610ba7565b155b156117b957826040517fa9fbf51f0000000000000000000000000000000000000000000000000000000081526004016117b09190611f5d565b60405180910390fd5b811561181b57838573ffffffffffffffffffffffffffffffffffffffff168273ffffffffffffffffffffffffffffffffffffffff167f8c5be1e5ebec7d5bd14f71427d1e84f3dd0314c0f7b2291e5b200ac8c7c3b92560405160405180910390a45b505b836004600085815260200190815260200160002060006101000a81548173ffffffffffffffffffffffffffffffffffffffff021916908373ffffffffffffffffffffffffffffffffffffffff16021790555050505050565b611880838383611a2b565b61193457600073ffffffffffffffffffffffffffffffffffffffff168373ffffffffffffffffffffffffffffffffffffffff16036118f557806040517f7e2732890000000000000000000000000000000000000000000000000000000081526004016118ec9190612100565b60405180910390fd5b81816040517f177e802f00000000000000000000000000000000000000000000000000000000815260040161192b92919061252f565b60405180910390fd5b505050565b60606000600161194884611aec565b01905060008167ffffffffffffffff811115611967576119666121be565b5b6040519080825280601f01601f1916602001820160405280156119995781602001600182028036833780820191505090505b509050600082602001820190505b6001156119fc578080600190039150507f3031323334353637383961626364656600000000000000000000000000000000600a86061a8153600a85816119f0576119ef612a6b565b5b049450600085036119a7575b819350505050919050565b611a118383611c3f565b611a26611a1c610e6e565b600085858561135e565b505050565b60008073ffffffffffffffffffffffffffffffffffffffff168373ffffffffffffffffffffffffffffffffffffffff1614158015611ae357508273ffffffffffffffffffffffffffffffffffffffff168473ffffffffffffffffffffffffffffffffffffffff161480611aa45750611aa38484610ba7565b5b80611ae257508273ffffffffffffffffffffffffffffffffffffffff16611aca83610e31565b73ffffffffffffffffffffffffffffffffffffffff16145b5b90509392505050565b600080600090507a184f03e93ff9f4daa797ed6e38ed64bf6a1f0100000000000000008310611b4a577a184f03e93ff9f4daa797ed6e38ed64bf6a1f0100000000000000008381611b4057611b3f612a6b565b5b0492506040810190505b6d04ee2d6d415b85acef81000000008310611b87576d04ee2d6d415b85acef81000000008381611b7d57611b7c612a6b565b5b0492506020810190505b662386f26fc100008310611bb657662386f26fc100008381611bac57611bab612a6b565b5b0492506010810190505b6305f5e1008310611bdf576305f5e1008381611bd557611bd4612a6b565b5b0492506008810190505b6127108310611c04576127108381611bfa57611bf9612a6b565b5b0492506004810190505b60648310611c275760648381611c1d57611c1c612a6b565b5b0492506002810190505b600a8310611c36576001810190505b80915050919050565b600073ffffffffffffffffffffffffffffffffffffffff168273ffffffffffffffffffffffffffffffffffffffff1603611cb15760006040517f64a0ae92000000000000000000000000000000000000000000000000000000008152600401611ca89190611f5d565b60405180910390fd5b6000611cbf83836000610e88565b9050600073ffffffffffffffffffffffffffffffffffffffff168173ffffffffffffffffffffffffffffffffffffffff1614611d335760006040517f73c6ac6e000000000000000000000000000000000000000000000000000000008152600401611d2a9190611f5d565b60405180910390fd5b505050565b6000604051905090565b600080fd5b600080fd5b60007fffffffff0000000000000000000000000000000000000000000000000000000082169050919050565b611d8181611d4c565b8114611d8c57600080fd5b50565b600081359050611d9e81611d78565b92915050565b600060208284031215611dba57611db9611d42565b5b6000611dc884828501611d8f565b91505092915050565b60008115159050919050565b611de681611dd1565b82525050565b6000602082019050611e016000830184611ddd565b92915050565b600081519050919050565b600082825260208201905092915050565b60005b83811015611e41578082015181840152602081019050611e26565b60008484015250505050565b6000601f19601f8301169050919050565b6000611e6982611e07565b611e738185611e12565b9350611e83818560208601611e23565b611e8c81611e4d565b840191505092915050565b60006020820190508181036000830152611eb18184611e5e565b905092915050565b6000819050919050565b611ecc81611eb9565b8114611ed757600080fd5b50565b600081359050611ee981611ec3565b92915050565b600060208284031215611f0557611f04611d42565b5b6000611f1384828501611eda565b91505092915050565b600073ffffffffffffffffffffffffffffffffffffffff82169050919050565b6000611f4782611f1c565b9050919050565b611f5781611f3c565b82525050565b6000602082019050611f726000830184611f4e565b92915050565b611f8181611f3c565b8114611f8c57600080fd5b50565b600081359050611f9e81611f78565b92915050565b60008060408385031215611fbb57611fba611d42565b5b6000611fc985828601611f8f565b9250506020611fda85828601611eda565b9150509250929050565b6000819050919050565b6000612009612004611fff84611f1c565b611fe4565b611f1c565b9050919050565b600061201b82611fee565b9050919050565b600061202d82612010565b9050919050565b61203d81612022565b82525050565b60006020820190506120586000830184612034565b92915050565b60008060006060848603121561207757612076611d42565b5b600061208586828701611f8f565b935050602061209686828701611f8f565b92505060406120a786828701611eda565b9150509250925092565b600080604083850312156120c8576120c7611d42565b5b60006120d685828601611f8f565b92505060206120e785828601611f8f565b9150509250929050565b6120fa81611eb9565b82525050565b600060208201905061211560008301846120f1565b92915050565b60006020828403121561213157612130611d42565b5b600061213f84828501611f8f565b91505092915050565b61215181611dd1565b811461215c57600080fd5b50565b60008135905061216e81612148565b92915050565b6000806040838503121561218b5761218a611d42565b5b600061219985828601611f8f565b92505060206121aa8582860161215f565b9150509250929050565b600080fd5b600080fd5b7f4e487b7100000000000000000000000000000000000000000000000000000000600052604160045260246000fd5b6121f682611e4d565b810181811067ffffffffffffffff82111715612215576122146121be565b5b80604052505050565b6000612228611d38565b905061223482826121ed565b919050565b600067ffffffffffffffff821115612254576122536121be565b5b61225d82611e4d565b9050602081019050919050565b82818337600083830152505050565b600061228c61228784612239565b61221e565b9050828152602081018484840111156122a8576122a76121b9565b5b6122b384828561226a565b509392505050565b600082601f8301126122d0576122cf6121b4565b5b81356122e0848260208601612279565b91505092915050565b6000806000806080858703121561230357612302611d42565b5b600061231187828801611f8f565b945050602061232287828801611f8f565b935050604061233387828801611eda565b925050606085013567ffffffffffffffff81111561235457612353611d47565b5b612360878288016122bb565b91505092959194509250565b600067ffffffffffffffff821115612387576123866121be565b5b61239082611e4d565b9050602081019050919050565b60006123b06123ab8461236c565b61221e565b9050828152602081018484840111156123cc576123cb6121b9565b5b6123d784828561226a565b509392505050565b600082601f8301126123f4576123f36121b4565b5b813561240484826020860161239d565b91505092915050565b60006020828403121561242357612422611d42565b5b600082013567ffffffffffffffff81111561244157612440611d47565b5b61244d848285016123df565b91505092915050565b7f4e487b7100000000000000000000000000000000000000000000000000000000600052602260045260246000fd5b6000600282049050600182168061249d57607f821691505b6020821081036124b0576124af612456565b5b50919050565b60006060820190506124cb6000830186611f4e565b6124d860208301856120f1565b6124e56040830184611f4e565b949350505050565b6000815190506124fc81611ec3565b92915050565b60006020828403121561251857612517611d42565b5b6000612526848285016124ed565b91505092915050565b60006040820190506125446000830185611f4e565b61255160208301846120f1565b9392505050565b60008151905061256781612148565b92915050565b60006020828403121561258357612582611d42565b5b600061259184828501612558565b91505092915050565b600081905092915050565b60006125b082611e07565b6125ba818561259a565b93506125ca818560208601611e23565b80840191505092915050565b60006125e282856125a5565b91506125ee82846125a5565b91508190509392505050565b600060608201905061260f6000830186611f4e565b61261c6020830185611f4e565b61262960408301846120f1565b949350505050565b7f5472616e73666572206f66205059555344206661696c65640000000000000000600082015250565b6000612667601883611e12565b915061267282612631565b602082019050919050565b600060208201905081810360008301526126968161265a565b9050919050565b7f4e487b7100000000000000000000000000000000000000000000000000000000600052601160045260246000fd5b60006126d782611eb9565b91507fffffffffffffffffffffffffffffffffffffffffffffffffffffffffffffffff82036127095761270861269d565b5b600182019050919050565b600081519050919050565b600082825260208201905092915050565b600061273b82612714565b612745818561271f565b9350612755818560208601611e23565b61275e81611e4d565b840191505092915050565b600060808201905061277e6000830187611f4e565b61278b6020830186611f4e565b61279860408301856120f1565b81810360608301526127aa8184612730565b905095945050505050565b6000815190506127c481611d78565b92915050565b6000602082840312156127e0576127df611d42565b5b60006127ee848285016127b5565b91505092915050565b60008190508160005260206000209050919050565b60006020601f8301049050919050565b600082821b905092915050565b6000600883026128597fffffffffffffffffffffffffffffffffffffffffffffffffffffffffffffffff8261281c565b612863868361281c565b95508019841693508086168417925050509392505050565b600061289661289161288c84611eb9565b611fe4565b611eb9565b9050919050565b6000819050919050565b6128b08361287b565b6128c46128bc8261289d565b848454612829565b825550505050565b600090565b6128d96128cc565b6128e48184846128a7565b505050565b5b81811015612908576128fd6000826128d1565b6001810190506128ea565b5050565b601f82111561294d5761291e816127f7565b6129278461280c565b81016020851015612936578190505b61294a6129428561280c565b8301826128e9565b50505b505050565b600082821c905092915050565b600061297060001984600802612952565b1980831691505092915050565b6000612989838361295f565b9150826002028217905092915050565b6129a282611e07565b67ffffffffffffffff8111156129bb576129ba6121be565b5b6129c58254612485565b6129d082828561290c565b600060209050601f831160018114612a0357600084156129f1578287015190505b6129fb858261297d565b865550612a63565b601f198416612a11866127f7565b60005b82811015612a3957848901518255600182019150602085019450602081019050612a14565b86831015612a565784890151612a52601f89168261295f565b8355505b6001600288020188555050505b505050505050565b7f4e487b7100000000000000000000000000000000000000000000000000000000600052601260045260246000fdfea2646970667358221220ecf3a01505e4366a32cab85d988d09b780ea753e2ae0e7337f65119b3cffa31e64736f6c63430008180033",
  "linkReferences": {},
  "deployedLinkReferences": {}
}