{
  "_format": "hh-sol-artifact-1",
  "contractName": "BetterCause",
  "sourceName": "contracts/BetterCause.sol",
  "abi": [
    {
      "anonymous": false,
      "inputs": [
        {
          "indexed": false,
          "internalType": "uint256",
          "name": "campaignId",
          "type": "uint256"
        },
        {
          "indexed": false,
          "internalType": "string",
          "name": "title",
          "type": "string"
        },
        {
          "indexed": false,
          "internalType": "string",
          "name": "description",
          "type": "string"
        },
        {
          "indexed": true,
          "internalType": "address",
          "name": "owner",
          "type": "address"
        },
        {
          "indexed": false,
          "internalType": "uint256",
          "name": "deadline",
          "type": "uint256"
        }
      ],
      "name": "CampaignCreated",
      "type": "event"
    },
    {
      "anonymous": false,
      "inputs": [
        {
          "indexed": true,
          "internalType": "uint256",
          "name": "campaignId",
          "type": "uint256"
        },
        {
          "indexed": true,
          "internalType": "address",
          "name": "donator",
          "type": "address"
        },
        {
          "indexed": false,
          "internalType": "uint256",
          "name": "amount",
          "type": "uint256"
        }
      ],
      "name": "DonationReceived",
      "type": "event"
    },
    {
      "inputs": [],
      "name": "campaignCount",
      "outputs": [
        {
          "internalType": "uint256",
          "name": "",
          "type": "uint256"
        }
      ],
      "stateMutability": "view",
      "type": "function"
    },
    {
      "inputs": [
        {
          "internalType": "uint256",
          "name": "",
          "type": "uint256"
        }
      ],
      "name": "campaigns",
      "outputs": [
        {
          "internalType": "string",
          "name": "title",
          "type": "string"
        },
        {
          "internalType": "string",
          "name": "description",
          "type": "string"
        },
        {
          "internalType": "string",
          "name": "imageHash",
          "type": "string"
        },
        {
          "internalType": "address",
          "name": "owner",
          "type": "address"
        },
        {
          "internalType": "uint256",
          "name": "deadline",
          "type": "uint256"
        },
        {
          "internalType": "uint256",
          "name": "amountCollected",
          "type": "uint256"
        }
      ],
      "stateMutability": "view",
      "type": "function"
    },
    {
      "inputs": [
        {
          "internalType": "string",
          "name": "_title",
          "type": "string"
        },
        {
          "internalType": "string",
          "name": "_description",
          "type": "string"
        },
        {
          "internalType": "string",
          "name": "_imageHash",
          "type": "string"
        },
        {
          "internalType": "uint256",
          "name": "_durationInDays",
          "type": "uint256"
        }
      ],
      "name": "createCampaign",
      "outputs": [],
      "stateMutability": "nonpayable",
      "type": "function"
    },
    {
      "inputs": [
        {
          "internalType": "uint256",
          "name": "_campaignId",
          "type": "uint256"
        }
      ],
      "name": "donateToCampaign",
      "outputs": [],
      "stateMutability": "payable",
      "type": "function"
    },
    {
      "inputs": [
        {
          "internalType": "uint256",
          "name": "_campaignId",
          "type": "uint256"
        }
      ],
      "name": "getCampaignById",
      "outputs": [
        {
          "internalType": "string",
          "name": "title",
          "type": "string"
        },
        {
          "internalType": "string",
          "name": "description",
          "type": "string"
        },
        {
          "internalType": "string",
          "name": "imageHash",
          "type": "string"
        },
        {
          "internalType": "address",
          "name": "owner",
          "type": "address"
        },
        {
          "internalType": "uint256",
          "name": "deadline",
          "type": "uint256"
        },
        {
          "internalType": "uint256",
          "name": "amountCollected",
          "type": "uint256"
        },
        {
          "internalType": "address[]",
          "name": "donators",
          "type": "address[]"
        }
      ],
      "stateMutability": "view",
      "type": "function"
    },
    {
      "inputs": [
        {
          "internalType": "uint256",
          "name": "_campaignId",
          "type": "uint256"
        },
        {
          "internalType": "address",
          "name": "_donator",
          "type": "address"
        }
      ],
      "name": "getDonationByDonator",
      "outputs": [
        {
          "internalType": "uint256",
          "name": "",
          "type": "uint256"
        }
      ],
      "stateMutability": "view",
      "type": "function"
    },
    {
      "inputs": [
        {
          "internalType": "uint256",
          "name": "_campaignId",
          "type": "uint256"
        }
      ],
      "name": "withdrawFunds",
      "outputs": [],
      "stateMutability": "nonpayable",
      "type": "function"
    }
  ],
  "bytecode": "0x608060405234801561001057600080fd5b506119b3806100206000396000f3fe6080604052600436106100705760003560e01c80634a15ef921161004e5780634a15ef92146100fc5780637274e30d14610125578063e6ffcaa114610150578063e7b599391461019357610070565b8063141961bc14610075578063155dd5ee146100b757806342a4fda8146100e0575b600080fd5b34801561008157600080fd5b5061009c60048036038101906100979190610cb6565b6101d0565b6040516100ae96959493929190610dc3565b60405180910390f35b3480156100c357600080fd5b506100de60048036038101906100d99190610cb6565b6103c4565b005b6100fa60048036038101906100f59190610cb6565b610590565b005b34801561010857600080fd5b50610123600480360381019061011e9190610f6e565b6107a4565b005b34801561013157600080fd5b5061013a610962565b6040516101479190611029565b60405180910390f35b34801561015c57600080fd5b5061017760048036038101906101729190610cb6565b610968565b60405161018a9796959493929190611102565b60405180910390f35b34801561019f57600080fd5b506101ba60048036038101906101b591906111b9565b610c0f565b6040516101c79190611029565b60405180910390f35b60006020528060005260406000206000915090508060000180546101f390611228565b80601f016020809104026020016040519081016040528092919081815260200182805461021f90611228565b801561026c5780601f106102415761010080835404028352916020019161026c565b820191906000526020600020905b81548152906001019060200180831161024f57829003601f168201915b50505050509080600101805461028190611228565b80601f01602080910402602001604051908101604052809291908181526020018280546102ad90611228565b80156102fa5780601f106102cf576101008083540402835291602001916102fa565b820191906000526020600020905b8154815290600101906020018083116102dd57829003601f168201915b50505050509080600201805461030f90611228565b80601f016020809104026020016040519081016040528092919081815260200182805461033b90611228565b80156103885780601f1061035d57610100808354040283529160200191610388565b820191906000526020600020905b81548152906001019060200180831161036b57829003601f168201915b5050505050908060030160009054906101000a900473ffffffffffffffffffffffffffffffffffffffff16908060040154908060050154905086565b803373ffffffffffffffffffffffffffffffffffffffff1660008083815260200190815260200160002060030160009054906101000a900473ffffffffffffffffffffffffffffffffffffffff1673ffffffffffffffffffffffffffffffffffffffff1614610468576040517f08c379a000000000000000000000000000000000000000000000000000000000815260040161045f906112cb565b60405180910390fd5b6000806000848152602001908152602001600020905080600401544210156104c5576040517f08c379a00000000000000000000000000000000000000000000000000000000081526004016104bc9061135d565b60405180910390fd5b600081600501541161050c576040517f08c379a0000000000000000000000000000000000000000000000000000000008152600401610503906113c9565b60405180910390fd5b600081600501549050600082600501819055508160030160009054906101000a900473ffffffffffffffffffffffffffffffffffffffff1673ffffffffffffffffffffffffffffffffffffffff166108fc829081150290604051600060405180830381858888f19350505050158015610589573d6000803e3d6000fd5b5050505050565b60008060008381526020019081526020016000209050806004015442106105ec576040517f08c379a00000000000000000000000000000000000000000000000000000000081526004016105e390611435565b60405180910390fd5b6000341161062f576040517f08c379a0000000000000000000000000000000000000000000000000000000008152600401610626906114c7565b60405180910390fd5b60008160070160003373ffffffffffffffffffffffffffffffffffffffff1673ffffffffffffffffffffffffffffffffffffffff16815260200190815260200160002054036106de5780600601339080600181540180825580915050600190039060005260206000200160009091909190916101000a81548173ffffffffffffffffffffffffffffffffffffffff021916908373ffffffffffffffffffffffffffffffffffffffff1602179055505b348160070160003373ffffffffffffffffffffffffffffffffffffffff1673ffffffffffffffffffffffffffffffffffffffff168152602001908152602001600020600082825461072f9190611516565b925050819055503481600501600082825461074a9190611516565b925050819055503373ffffffffffffffffffffffffffffffffffffffff16827f0b5b4c52969ff7329ecf7ee536409fda87812b15a8622bc6e8cdeab3aee14a26346040516107989190611029565b60405180910390a35050565b60008451116107e8576040517f08c379a00000000000000000000000000000000000000000000000000000000081526004016107df90611596565b60405180910390fd5b600083511161082c576040517f08c379a000000000000000000000000000000000000000000000000000000000815260040161082390611602565b60405180910390fd5b6001600081548092919061083f90611622565b91905055506000806000600154815260200190815260200160002090508481600001908161086d9190611816565b508381600101908161087f9190611816565b50828160020190816108919190611816565b50338160030160006101000a81548173ffffffffffffffffffffffffffffffffffffffff021916908373ffffffffffffffffffffffffffffffffffffffff16021790555062015180826108e491906118e8565b426108ef9190611516565b8160040181905550600081600501819055503373ffffffffffffffffffffffffffffffffffffffff167f16e3b2e051775c2ea42dc5c41a2fb6e50d2c45b11809a6e36e31e56353508c5d60015487878560040154604051610953949392919061192a565b60405180910390a25050505050565b60015481565b60608060606000806000606060008060008a815260200190815260200160002090508060000181600101826002018360030160009054906101000a900473ffffffffffffffffffffffffffffffffffffffff1684600401548560050154866006018680546109d590611228565b80601f0160208091040260200160405190810160405280929190818152602001828054610a0190611228565b8015610a4e5780601f10610a2357610100808354040283529160200191610a4e565b820191906000526020600020905b815481529060010190602001808311610a3157829003601f168201915b50505050509650858054610a6190611228565b80601f0160208091040260200160405190810160405280929190818152602001828054610a8d90611228565b8015610ada5780601f10610aaf57610100808354040283529160200191610ada565b820191906000526020600020905b815481529060010190602001808311610abd57829003601f168201915b50505050509550848054610aed90611228565b80601f0160208091040260200160405190810160405280929190818152602001828054610b1990611228565b8015610b665780601f10610b3b57610100808354040283529160200191610b66565b820191906000526020600020905b815481529060010190602001808311610b4957829003601f168201915b5050505050945080805480602002602001604051908101604052809291908181526020018280548015610bee57602002820191906000526020600020905b8160009054906101000a900473ffffffffffffffffffffffffffffffffffffffff1673ffffffffffffffffffffffffffffffffffffffff1681526020019060010190808311610ba4575b50505050509050975097509750975097509750975050919395979092949650565b600080600084815260200190815260200160002060070160008373ffffffffffffffffffffffffffffffffffffffff1673ffffffffffffffffffffffffffffffffffffffff16815260200190815260200160002054905092915050565b6000604051905090565b600080fd5b600080fd5b6000819050919050565b610c9381610c80565b8114610c9e57600080fd5b50565b600081359050610cb081610c8a565b92915050565b600060208284031215610ccc57610ccb610c76565b5b6000610cda84828501610ca1565b91505092915050565b600081519050919050565b600082825260208201905092915050565b60005b83811015610d1d578082015181840152602081019050610d02565b60008484015250505050565b6000601f19601f8301169050919050565b6000610d4582610ce3565b610d4f8185610cee565b9350610d5f818560208601610cff565b610d6881610d29565b840191505092915050565b600073ffffffffffffffffffffffffffffffffffffffff82169050919050565b6000610d9e82610d73565b9050919050565b610dae81610d93565b82525050565b610dbd81610c80565b82525050565b600060c0820190508181036000830152610ddd8189610d3a565b90508181036020830152610df18188610d3a565b90508181036040830152610e058187610d3a565b9050610e146060830186610da5565b610e216080830185610db4565b610e2e60a0830184610db4565b979650505050505050565b600080fd5b600080fd5b7f4e487b7100000000000000000000000000000000000000000000000000000000600052604160045260246000fd5b610e7b82610d29565b810181811067ffffffffffffffff82111715610e9a57610e99610e43565b5b80604052505050565b6000610ead610c6c565b9050610eb98282610e72565b919050565b600067ffffffffffffffff821115610ed957610ed8610e43565b5b610ee282610d29565b9050602081019050919050565b82818337600083830152505050565b6000610f11610f0c84610ebe565b610ea3565b905082815260208101848484011115610f2d57610f2c610e3e565b5b610f38848285610eef565b509392505050565b600082601f830112610f5557610f54610e39565b5b8135610f65848260208601610efe565b91505092915050565b60008060008060808587031215610f8857610f87610c76565b5b600085013567ffffffffffffffff811115610fa657610fa5610c7b565b5b610fb287828801610f40565b945050602085013567ffffffffffffffff811115610fd357610fd2610c7b565b5b610fdf87828801610f40565b935050604085013567ffffffffffffffff81111561100057610fff610c7b565b5b61100c87828801610f40565b925050606061101d87828801610ca1565b91505092959194509250565b600060208201905061103e6000830184610db4565b92915050565b600081519050919050565b600082825260208201905092915050565b6000819050602082019050919050565b61107981610d93565b82525050565b600061108b8383611070565b60208301905092915050565b6000602082019050919050565b60006110af82611044565b6110b9818561104f565b93506110c483611060565b8060005b838110156110f55781516110dc888261107f565b97506110e783611097565b9250506001810190506110c8565b5085935050505092915050565b600060e082019050818103600083015261111c818a610d3a565b905081810360208301526111308189610d3a565b905081810360408301526111448188610d3a565b90506111536060830187610da5565b6111606080830186610db4565b61116d60a0830185610db4565b81810360c083015261117f81846110a4565b905098975050505050505050565b61119681610d93565b81146111a157600080fd5b50565b6000813590506111b38161118d565b92915050565b600080604083850312156111d0576111cf610c76565b5b60006111de85828601610ca1565b92505060206111ef858286016111a4565b9150509250929050565b7f4e487b7100000000000000000000000000000000000000000000000000000000600052602260045260246000fd5b6000600282049050600182168061124057607f821691505b602082108103611253576112526111f9565b5b50919050565b7f4f6e6c79207468652063616d706169676e206f776e65722063616e207065726660008201527f6f726d207468697320616374696f6e0000000000000000000000000000000000602082015250565b60006112b5602f83610cee565b91506112c082611259565b604082019050919050565b600060208201905081810360008301526112e4816112a8565b9050919050565b7f43616e6e6f742077697468647261772066756e6473206265666f72652063616d60008201527f706169676e20656e647300000000000000000000000000000000000000000000602082015250565b6000611347602a83610cee565b9150611352826112eb565b604082019050919050565b600060208201905081810360008301526113768161133a565b9050919050565b7f4e6f2066756e647320746f207769746864726177000000000000000000000000600082015250565b60006113b3601483610cee565b91506113be8261137d565b602082019050919050565b600060208201905081810360008301526113e2816113a6565b9050919050565b7f43616d706169676e2068617320656e6465640000000000000000000000000000600082015250565b600061141f601283610cee565b915061142a826113e9565b602082019050919050565b6000602082019050818103600083015261144e81611412565b9050919050565b7f446f6e6174696f6e20616d6f756e74206d75737420626520677265617465722060008201527f7468616e20300000000000000000000000000000000000000000000000000000602082015250565b60006114b1602683610cee565b91506114bc82611455565b604082019050919050565b600060208201905081810360008301526114e0816114a4565b9050919050565b7f4e487b7100000000000000000000000000000000000000000000000000000000600052601160045260246000fd5b600061152182610c80565b915061152c83610c80565b9250828201905080821115611544576115436114e7565b5b92915050565b7f5469746c652063616e6e6f7420626520656d7074790000000000000000000000600082015250565b6000611580601583610cee565b915061158b8261154a565b602082019050919050565b600060208201905081810360008301526115af81611573565b9050919050565b7f4465736372697074696f6e2063616e6e6f7420626520656d7074790000000000600082015250565b60006115ec601b83610cee565b91506115f7826115b6565b602082019050919050565b6000602082019050818103600083015261161b816115df565b9050919050565b600061162d82610c80565b91507fffffffffffffffffffffffffffffffffffffffffffffffffffffffffffffffff820361165f5761165e6114e7565b5b600182019050919050565b60008190508160005260206000209050919050565b60006020601f8301049050919050565b600082821b905092915050565b6000600883026116cc7fffffffffffffffffffffffffffffffffffffffffffffffffffffffffffffffff8261168f565b6116d6868361168f565b95508019841693508086168417925050509392505050565b6000819050919050565b600061171361170e61170984610c80565b6116ee565b610c80565b9050919050565b6000819050919050565b61172d836116f8565b6117416117398261171a565b84845461169c565b825550505050565b600090565b611756611749565b611761818484611724565b505050565b5b818110156117855761177a60008261174e565b600181019050611767565b5050565b601f8211156117ca5761179b8161166a565b6117a48461167f565b810160208510156117b3578190505b6117c76117bf8561167f565b830182611766565b50505b505050565b600082821c905092915050565b60006117ed600019846008026117cf565b1980831691505092915050565b600061180683836117dc565b9150826002028217905092915050565b61181f82610ce3565b67ffffffffffffffff81111561183857611837610e43565b5b6118428254611228565b61184d828285611789565b600060209050601f831160018114611880576000841561186e578287015190505b61187885826117fa565b8655506118e0565b601f19841661188e8661166a565b60005b828110156118b657848901518255600182019150602085019450602081019050611891565b868310156118d357848901516118cf601f8916826117dc565b8355505b6001600288020188555050505b505050505050565b60006118f382610c80565b91506118fe83610c80565b925082820261190c81610c80565b91508282048414831517611923576119226114e7565b5b5092915050565b600060808201905061193f6000830187610db4565b81810360208301526119518186610d3a565b905081810360408301526119658185610d3a565b90506119746060830184610db4565b9594505050505056fea2646970667358221220470ab5dd05def6b7a9ab5b35fe249e6ba0cdfc5a8804ffba63f2dc124d7be6a664736f6c63430008180033",
  "linkReferences": {},
  "deployedLinkReferences": {}
}