{
  "_format": "hh-sol-artifact-1",
  "contractName": "NFTMarketplace",
  "sourceName": "contracts/NFTMarketplace.sol",
  "abi": [
    {
      "inputs": [
        {
          "internalType": "uint256",
          "name": "tokenId",
          "type": "uint256"
        }
      ],
      "name": "buyNFT",
      "outputs": [],
      "stateMutability": "payable",
      "type": "function"
    },
    {
      "inputs": [
        {
          "internalType": "address",
          "name": "nftContract",
          "type": "address"
        },
        {
          "internalType": "uint256",
          "name": "tokenId",
          "type": "uint256"
        },
        {
          "internalType": "uint256",
          "name": "price",
          "type": "uint256"
        }
      ],
      "name": "listNFT",
      "outputs": [],
      "stateMutability": "nonpayable",
      "type": "function"
    },
    {
      "inputs": [
        {
          "internalType": "uint256",
          "name": "",
          "type": "uint256"
        }
      ],
      "name": "listings",
      "outputs": [
        {
          "internalType": "address",
          "name": "seller",
          "type": "address"
        },
        {
          "internalType": "uint256",
          "name": "price",
          "type": "uint256"
        },
        {
          "internalType": "address",
          "name": "nftContract",
          "type": "address"
        },
        {
          "internalType": "uint256",
          "name": "tokenId",
          "type": "uint256"
        }
      ],
      "stateMutability": "view",
      "type": "function"
    }
  ],
  "bytecode": "0x608060405234801561001057600080fd5b5061076d806100206000396000f3fe6080604052600436106100345760003560e01c806351ed828814610039578063ad05f1b414610055578063de74e57b1461007e575b600080fd5b610053600480360381019061004e9190610542565b6100be565b005b34801561006157600080fd5b5061007c600480360381019061007791906105cd565b61031f565b005b34801561008a57600080fd5b506100a560048036038101906100a09190610542565b610497565b6040516100b5949392919061063e565b60405180910390f35b60008060008381526020019081526020016000206040518060800160405290816000820160009054906101000a900473ffffffffffffffffffffffffffffffffffffffff1673ffffffffffffffffffffffffffffffffffffffff1673ffffffffffffffffffffffffffffffffffffffff168152602001600182015481526020016002820160009054906101000a900473ffffffffffffffffffffffffffffffffffffffff1673ffffffffffffffffffffffffffffffffffffffff1673ffffffffffffffffffffffffffffffffffffffff168152602001600382015481525050905080602001513410156101e6576040517f08c379a00000000000000000000000000000000000000000000000000000000081526004016101dd906106e0565b60405180910390fd5b806000015173ffffffffffffffffffffffffffffffffffffffff166108fc82602001519081150290604051600060405180830381858888f19350505050158015610234573d6000803e3d6000fd5b50806040015173ffffffffffffffffffffffffffffffffffffffff166323b872dd3033856040518463ffffffff1660e01b815260040161027693929190610700565b600060405180830381600087803b15801561029057600080fd5b505af11580156102a4573d6000803e3d6000fd5b50505050600080838152602001908152602001600020600080820160006101000a81549073ffffffffffffffffffffffffffffffffffffffff021916905560018201600090556002820160006101000a81549073ffffffffffffffffffffffffffffffffffffffff0219169055600382016000905550505050565b8273ffffffffffffffffffffffffffffffffffffffff166323b872dd3330856040518463ffffffff1660e01b815260040161035c93929190610700565b600060405180830381600087803b15801561037657600080fd5b505af115801561038a573d6000803e3d6000fd5b5050505060405180608001604052803373ffffffffffffffffffffffffffffffffffffffff1681526020018281526020018473ffffffffffffffffffffffffffffffffffffffff1681526020018381525060008084815260200190815260200160002060008201518160000160006101000a81548173ffffffffffffffffffffffffffffffffffffffff021916908373ffffffffffffffffffffffffffffffffffffffff1602179055506020820151816001015560408201518160020160006101000a81548173ffffffffffffffffffffffffffffffffffffffff021916908373ffffffffffffffffffffffffffffffffffffffff16021790555060608201518160030155905050505050565b60006020528060005260406000206000915090508060000160009054906101000a900473ffffffffffffffffffffffffffffffffffffffff16908060010154908060020160009054906101000a900473ffffffffffffffffffffffffffffffffffffffff16908060030154905084565b600080fd5b6000819050919050565b61051f8161050c565b811461052a57600080fd5b50565b60008135905061053c81610516565b92915050565b60006020828403121561055857610557610507565b5b60006105668482850161052d565b91505092915050565b600073ffffffffffffffffffffffffffffffffffffffff82169050919050565b600061059a8261056f565b9050919050565b6105aa8161058f565b81146105b557600080fd5b50565b6000813590506105c7816105a1565b92915050565b6000806000606084860312156105e6576105e5610507565b5b60006105f4868287016105b8565b93505060206106058682870161052d565b92505060406106168682870161052d565b9150509250925092565b6106298161058f565b82525050565b6106388161050c565b82525050565b60006080820190506106536000830187610620565b610660602083018661062f565b61066d6040830185610620565b61067a606083018461062f565b95945050505050565b600082825260208201905092915050565b7f4e6f7420656e6f7567682066756e647300000000000000000000000000000000600082015250565b60006106ca601083610683565b91506106d582610694565b602082019050919050565b600060208201905081810360008301526106f9816106bd565b9050919050565b60006060820190506107156000830186610620565b6107226020830185610620565b61072f604083018461062f565b94935050505056fea26469706673582212209cbc52cdf4fc7f4c51bb33035f615339e18ddcf42b2cd4319a2612a4c115dddc64736f6c63430008180033",
  "linkReferences": {},
  "deployedLinkReferences": {}
}